:020000040000FA
:0600000088EF02F012007F
:020006000000F8
:08000800D9CFE6FFE1CFD9FFDB
:10001000040EE126FD0EDBCF02F0FE0EDBCF03F077
:10002000033404E202500008000E035423E2DE6AA7
:10003000DE6ADE6ADD6ADD52DD52D9CFE9FFDACF52
:10004000EAFF850EEE5C450EEE58010EEE58000EEE
:10005000EE580AE2D9CFE9FFDACFEAFFEE2A000E26
:10006000EE22EE22EE22E9D7FD0EDB06FE0E01E2C5
:10007000DB06D0D7040EE15C02E2E16AE552E16EF4
:10008000E552E7CFD9FF1200D9CFE6FFE1CFD9FF84
:10009000020EE126FD0EDBCF02F0FE0EDBCF03F0F9
:1000A000033404E202500008000E035416E2DE6A34
:1000B000DD6ADECF02F0DDCF03F0820E025C000EBF
:1000C000035805E2DF2A010E01E3DB2AF2D7FD0E19
:1000D000DB06FE0E01E2DB06DDD7020EE15C02E28A
:1000E000E16AE552E16EE552E7CFD9FF1200D9CFC0
:1000F000E6FFE1CFD9FFE652FD0EDBCF02F0FE0EA8
:10010000DBCF03F0033404E202500008000E035476
:100110000CE2DF6A1C0EDF5C02E2DF2AFBD7FD0E79
:10012000DB06FE0E01E2DB06E7D7DF6AE552E552A9
:10013000E7CFD9FF1200D9CFE6FFE1CFD9FF8A90F0
:100140008A82FE0EDB508C6E8A920A0EE66EE66A9A
:100150009BDFE552E552E552E7CFD9FF1200D9CF38
:10016000E6FFE1CFD9FF8A808A82FE0EDB508C6EDB
:100170008A920A0EE66EE66A87DFE552E552E5529C
:10018000E7CFD9FF1200380EE66ED5DFE5520C0E30
:10019000E66ED1DFE552010EE66ECDDFE5521200CC
:1001A000400EE66EC8DFE552040EE66ED8DFE5527B
:1001B000410EE66EC0DFE5521F0EE66ED0DFE5525F
:1001C000420EE66EB8DFE5521F0EE66EC8DFE5525E
:1001D000430EE66EB0DFE5521F0EE66EC0DFE5525D
:1001E000440EE66EA8DFE5521F0EE66EB8DFE5525C
:1001F000450EE66EA0DFE5521F0EE66EB0DFE5525B
:10020000460EE66E98DFE5521F0EE66EA8DFE55259
:10021000470EE66E90DFE5521F0EE66EA0DFE55258
:10022000480EE66E88DFE552040EE66E98DFE55272
:10023000490EE66E80DFE5521F0EE66E90DFE55256
:100240004A0EE66E78DFE552110EE66E88DFE55263
:100250004B0EE66E70DFE552110EE66E80DFE55262
:100260004C0EE66E68DFE5521F0EE66E78DFE55253
:100270004D0EE66E60DFE5521F0EE66E70DFE55252
:100280004E0EE66E58DFE5521F0EE66E68DFE55251
:100290004F0EE66E50DFE5521F0EE66E60DFE55250
:1002A000500EE66E48DFE552040EE66E58DFE5526A
:1002B000510EE66E40DFE5521F0EE66E50DFE5524E
:1002C000520EE66E38DFE552110EE66E48DFE5525B
:1002D000530EE66E30DFE552110EE66E40DFE5525A
:1002E000540EE66E28DFE552110EE66E38DFE55259
:1002F000550EE66E20DFE552110EE66E30DFE55258
:10030000560EE66E18DFE5521F0EE66E28DFE55248
:10031000570EE66E10DFE5521F0EE66E20DFE55247
:100320001200C00EE66E07DFE552430EE66E17DFE1
:10033000E552410EE66E13DFE552520EE66E0FDF18
:10034000E552520EE66E0BDFE552450EE66E07DF14
:10035000E552470EE66E03DFE552410EE66EFFDE24
:10036000E5524E0EE66EFBDEE552440EE66EF7DE1B
:10037000E5524F0EE66EF3DEE5522E0EE66EEFDE30
:10038000E5522E0EE66EEBDEE5522E0EE66EE7DE51
:10039000E552800EE66ECFDEE552020EE66EDFDE3F
:1003A000E552CC0EE66EC7DEE5522E0EE66ED7DEC7
:1003B000E552010EE66EE66A27DEE552E552800E52
:1003C000E66EB9DEE552010EE66EC9DEE552CC0EF0
:1003D000E66EB1DEE552200EE66EC1DEE552010E9C
:1003E000E66EE66A11DEE552E552800EE66EA3DEA9
:1003F000E552E66AB4DEE552CC0EE66E9CDEE552CE
:100400002E0EE66EACDEE552010EE66EE66AFCDD0F
:10041000E552E552CC0EE66E8EDEE552200EE66E1B
:100420009EDEE552F40EE66E010EE66E2DDEE5521E
:10043000E552AFD712000F0EC16ED38CD38AD3888A
:10044000936A946A956A9FDE8B88AADE6ADFFFD77B
:02045000120098
:0E045200060EF66E000EF76E000EF86E00013C
:100460000900F550856F0900F550866F03E1856737
:1004700001D03DD00900F550806F0900F550816F23
:100480000900F550826F09000900F550E96E090076
:10049000F550EA6E090009000900F550836F090064
:1004A000F550846F09000900F6CF87F0F7CF88F088
:1004B000F8CF89F080C0F6FF81C0F7FF82C0F8FF57
:1004C0000001835302E1845307E00900F550EE6E0A
:1004D0008307F8E28407F9D787C0F6FF88C0F7FFE3
:1004E00089C0F8FF00018507000E865BBFD71200A8
:1004F000000EF36E00EE00F0060E01D81200EA6066
:1005000002D0EE6AFCD7F350E9601200EE6AFCD725
:1005100015EE00F025EE00F0F86A019C29EC02F0DF
:0C05200096EC02F01BEC02F0FBD712007E
:02052C001200BB
:020000040030CA
:0100010008F6
:0100020019E4
:010003001EDE
:0100050001F9
:00000001FF
