:020000040000FA
:0600000070EF05F0120094
:0A0006000100FE0A00008000000067
:0400100012000000DA
:0C001400D9CFE6FFE1CFD9FF040EE126B2
:10002000FD0EDBCF02F0FE0EDBCF03F0033404E263
:1000300002500008000E035423E2DE6ADE6ADE6A24
:10004000DD6ADD52DD52D9CFE9FFDACFEAFF850E56
:10005000EE5C450EEE58010EEE58000EEE580AE228
:10006000D9CFE9FFDACFEAFFEE2A000EEE22EE2228
:10007000EE22E9D7FD0EDB06FE0E01E2DB06D0D74D
:10008000040EE15C02E2E16AE552E16EE552E7CF7F
:10009000D9FF1200D9CFE6FFE1CFD9FF020EE1264A
:1000A000FD0EDBCF02F0FE0EDBCF03F0033404E2E3
:1000B00002500008000E035416E2DE6ADD6ADECF4D
:1000C00002F0DDCF03F0820E025C000E035805E261
:1000D000DF2A010E01E3DB2AF2D7FD0EDB06FE0E5E
:1000E00001E2DB06DDD7020EE15C02E2E16AE552E5
:1000F000E16EE552E7CFD9FF1200D9CFE6FFE1CF9D
:10010000D9FFE652FD0EDBCF02F0FE0EDBCF03F08F
:10011000033404E202500008000E03540CE2DF6ACC
:100120001C0EDF5C02E2DF2AFBD7FD0EDB06FE0EB3
:1001300001E2DB06E7D7DF6AE552E552E7CFD9FFF8
:100140001200D9CFE6FFE1CFD9FF8B908B82FE0E54
:10015000DB508C6E8B920A0EE66EE66A9BDFE552F0
:10016000E552E552E7CFD9FF1200D9CFE6FFE1CF44
:10017000D9FF8B808B82FE0EDB508C6E8B920A0E29
:10018000E66EE66A87DFE552E552E552E7CFD9FF32
:100190001200380EE66ED5DFE5520C0EE66ED1DFAA
:1001A000E552010EE66ECDDFE5521200400EE66E1E
:1001B000C8DFE552020EE66ED8DFE552410EE66E6C
:1001C000C0DFE552010EE66ED0DFE552420EE66E6C
:1001D000B8DFE552190EE66EC8DFE552430EE66E53
:1001E000B0DFE552010EE66EC0DFE552440EE66E6A
:1001F000A8DFE552010EE66EB8DFE552450EE66E69
:10020000A0DFE552190EE66EB0DFE552460EE66E4F
:1002100098DFE552020EE66EA8DFE552470EE66E65
:1002200090DFE552E66AA1DFE552480EE66E89DF0F
:10023000E552E66A9ADFE552490EE66E82DFE55244
:10024000010EE66E92DFE5524A0EE66E7ADFE55267
:100250001A0EE66E8ADFE5524B0EE66E72DFE5524D
:10026000020EE66E82DFE5524C0EE66E6ADFE55264
:10027000020EE66E7ADFE5524D0EE66E62DFE55263
:100280001A0EE66E72DFE5524E0EE66E5ADFE5524A
:10029000010EE66E6ADFE5524F0EE66E52DFE55262
:1002A000E66A63DFE552500EE66E4BDFE5520E0E56
:1002B000E66E5BDFE552510EE66E43DFE552110E4E
:1002C000E66E53DFE552520EE66E3BDFE552110E4D
:1002D000E66E4BDFE552530EE66E33DFE5521F0E3E
:1002E000E66E43DFE552540EE66E2BDFE5521B0E41
:1002F000E66E3BDFE552550EE66E23DFE5521B0E40
:10030000E66E33DFE552560EE66E1BDFE5521F0E3A
:10031000E66E2BDFE552570EE66E13DFE5521F0E39
:10032000E66E23DFE552580EE66E0BDFE552E66A15
:100330001CDFE552590EE66E04DFE552150EE66E3F
:1003400014DFE5525A0EE66EFCDEE5520E0EE66E46
:100350000CDFE5525B0EE66EF4DEE5521F0EE66E34
:1003600004DFE5525C0EE66EECDEE5520E0EE66E44
:10037000FCDEE5525D0EE66EE4DEE552150EE66E3D
:10038000F4DEE5525E0EE66EDCDEE552E66AEDDE98
:10039000E5525F0EE66ED5DEE552E66AE6DEE55230
:1003A0001200010EE66ECDDEE552800EE66EC9DE6D
:1003B000E5524F0EE66ED9DEE5526C0EE66ED5DEE6
:1003C000E552610EE66ED1DEE5522C0EE66ECDDE14
:1003D000E552200EE66EC9DEE552500EE66EC5DE31
:1003E000E5526F0EE66EC1DEE552720EE66EBDDEC0
:1003F000E552200EE66EB9DEE552660EE66EB5DE1B
:10040000E552610EE66EB1DEE552760EE66EADDEC9
:10041000E5526F0EE66EA9DEE552720EE66EA5DEBF
:10042000E552C00EE66E8DDEE552490EE66E9DDEAB
:10043000E5526E0EE66E99DEE552730EE66E95DEBF
:10044000E552690EE66E91DEE552720EE66E8DDEC5
:10045000E552610EE66E89DEE552200EE66E85DE1F
:10046000E552730EE66E81DEE552750EE66E7DDEB8
:10047000E552610EE66E79DEE552200EE66E75DE1F
:10048000E552730EE66E71DEE552650EE66E6DDEC8
:10049000E5526E0EE66E69DEE552680EE66E65DECA
:1004A000E552610EE66E61DEE5521200010EE66E67
:1004B00048DEE552800EE66E44DEE552530EE66EEF
:1004C00054DEE552650EE66E50DEE5526E0EE66EC7
:1004D0004CDEE552680EE66E48DEE552610EE66ED1
:1004E00044DEE552200EE66E40DEE552690EE66E11
:1004F0003CDEE5526E0EE66E38DEE552760EE66EB6
:1005000034DEE552610EE66E30DEE5526C0EE66ECC
:100510002CDEE552690EE66E28DEE552640EE66ECC
:1005200024DEE552610EE66E20DEE552210EE66E17
:100530001CDEE552C00EE66E04DEE552410EE66EAC
:1005400014DEE552630EE66E10DEE552650EE66ED1
:100550000CDEE552730EE66E08DEE552730EE66EB3
:1005600004DEE5526F0EE66E00DEE552200EE66E0A
:10057000FCDDE5526E0EE66EF8DDE552650EE66EC8
:10058000F4DDE552670EE66EF0DDE552610EE66ED3
:10059000ECDDE552640EE66EE8DDE5526F0EE66EC8
:1005A000E4DDE552200EE66EE0DDE552010EE66E7A
:1005B000DCDDE5521200010EE66EC3DDE552800E71
:1005C000E66EBFDDE552410EE66ECFDDE552630E0D
:1005D000E66ECBDDE552650EE66EC7DDE552730EC5
:1005E000E66EC3DDE552730EE66EBFDDE5526F0EBB
:1005F000E66EBBDDE552200EE66EB7DDE5524C0E31
:10060000E66EB3DDE552690EE66EAFDDE552620ED1
:10061000E66EABDDE552650EE66EA7DDE552720EC5
:10062000E66EA3DDE552610EE66E9FDDE552640ED7
:10063000E66E9BDDE5526F0EE66E97DDE552210E0C
:10064000E66E93DDE552C00EE66E7BDDE552530E9D
:10065000E66E8BDDE552650EE66E87DDE5526A0ECD
:10066000E66E83DDE552610EE66E7FDDE552200E1B
:10067000E66E7BDDE552620EE66E77DDE552650ED5
:10068000E66E73DDE5526D0EE66E6FDDE552200E0F
:10069000E66E6BDDE552760EE66E67DDE552690EBD
:1006A000E66E63DDE5526E0EE66E5FDDE552640ECA
:1006B000E66E5BDDE5526F0EE66E57DDE552200E0D
:1006C000E66E53DDE552E66A50DDE55212002C0E6F
:1006D000E66E010EE66EDEDCE552E552030EE66ED6
:1006E00044DDE552120000018E518F1101E0C9D0A6
:1006F0008A988A8A8A8C81B60BD081B604D0010E82
:100700008E6F8F6BFAD78A2B000E8B23310EB9D0E8
:1007100081B40BD081B404D0010E8E6F8F6BFAD7E9
:100720008A2B000E8B23340EACD081B20BD081B259
:1007300004D0010E8E6F8F6BFAD78A2B000E8B239D
:10074000370E9FD081B00BD081B004D0010E8E6FD8
:100750008F6BFAD78A2B000E8B232A0E92D00A0EAB
:10076000E66EE66A97DCE552E5528A888A9A8A8CB8
:1007700081B60DD081B605D0010E00018E6F8F6B52
:10078000F9D700018A2B000E8B23320E7AD081B468
:100790000DD081B405D0010E00018E6F8F6BF9D79B
:1007A00000018A2B000E8B23350E6BD081B20DD049
:1007B00081B205D0010E00018E6F8F6BF9D7000159
:1007C0008A2B000E8B23380E5CD081B00DD081B007
:1007D00005D0010E00018E6F8F6BF9D700018A2BB7
:1007E000000E8B23300E4DD00A0EE66EE66A52DC08
:1007F000E552E5528A888A8A8A9C81B60DD081B6F4
:1008000005D0010E00018E6F8F6BF9D700018A2B86
:10081000000E8B23330E35D081B40DD081B405D0BA
:10082000010E00018E6F8F6BF9D700018A2B000E2D
:100830008B23360E26D081B20DD081B205D0010EA9
:1008400000018E6F8F6BF9D700018A2B000E8B236E
:10085000390E17D081B00DD081B005D0010E000146
:100860008E6F8F6BF9D700018A2B000E8B23230E1E
:1008700008D00A0EE66EE66A4AEC00F0E552E55250
:1008800032D712000F0EC16ED38CD38AD388936EE9
:10089000946A956A7EDC8A8E8B9488DC82DD23DF05
:1008A000000901E001D0FBD7010EE66E4ADCE552FB
:1008B000800EE66E46DCE552020EE66E56DCE55230
:1008C0008AAE09D0580EE66E020EE66E4AEC00F0D3
:1008D000E552E5528A9E07DF00019C6F0A0EE66E24
:1008E000E66A4AEC00F0E552E55200018E6B8F6B30
:1008F0009CC080F0010E8A1901E18B5101E08ED07D
:10090000820EE66EA1EC00F0E552E1DEECDE0001C5
:100910009C6F0A0EE66EE66A4AEC00F0E552E5527C
:1009200000018E6B8F6B9CC081F0020E8A1901E171
:100930008B5173E1CCDED7DE00019C6F0A0EE66EB0
:10094000E66A4AEC00F0E552E55200018E6B8F6BCF
:100950009CC082F0030E8A1901E18B515DE1B7DE84
:10096000C2DE00019C6F0A0EE66EE66A4AEC00F0F9
:10097000E552E55200018E6B8F6B9CC083F0000145
:10098000040E8A1901E18B5146E1A1DE0001906B52
:10099000916B8C6B8D6B040E8DAF02D0D89003D011
:1009A0008C5D000E8D5918E2840E8C25E96E000EC8
:1009B0008D21EA6EEFCF02F0800E8C25E96E000EDD
:1009C0008D21EA6EEF50025C03E1902B000E912323
:1009D0008C2B000E8D23DFD78A6B8B6B030E901947
:1009E00001E191510CE18B84C9EC00F0E4DD010ED2
:1009F000E66EE66A0AEC00F0E552E5520BD08A8E0C
:100A0000C9EC00F053DD010EE66EE66A0AEC00F078
:100A1000E552E552B4D79ED788D76CD701D044D7DA
:020A20001200C2
:0E0A2200060EF66E000EF76E000EF86E000166
:100A30000900F550976F0900F550986F03E197672B
:100A400001D03DD00900F550926F0900F550936F29
:100A50000900F550946F09000900F550E96E09008E
:100A6000F550EA6E090009000900F550956F09007C
:100A7000F550966F09000900F6CF99F0F7CF9AF07C
:100A8000F8CF9BF092C0F6FF93C0F7FF94C0F8FF39
:100A90000001955302E1965307E00900F550EE6E10
:100AA0009507F8E29607F9D799C0F6FF9AC0F7FFC5
:100AB0009BC0F8FF00019707000E985BBFD712009C
:100AC000000EF36E00EE00F0060E01D81200EA6090
:100AD00002D0EE6AFCD7F350E9601200EE6AFCD750
:100AE00015EE00F025EE00F0F86A019C11EC05F01F
:0C0AF0007EEC05F042EC04F0FBD7120095
:020AFC001200E6
:020AFE00303096
:100B000030303134313700000000000000000000B8
:020000040030CA
:0100010008F6
:0100020019E4
:010003001EDE
:0100050001F9
:00000001FF
