:020000040000FA
:06000000E7EF03F012001F
:020006000000F8
:08000800D9CFE6FFE1CFD9FFDB
:10001000040EE126FD0EDBCF02F0FE0EDBCF03F077
:10002000033404E202500008000E035423E2DE6AA7
:10003000DE6ADE6ADD6ADD52DD52D9CFE9FFDACF52
:10004000EAFF850EEE5C450EEE58010EEE58000EEE
:10005000EE580AE2D9CFE9FFDACFEAFFEE2A000E26
:10006000EE22EE22EE22E9D7FD0EDB06FE0E01E2C5
:10007000DB06D0D7040EE15C02E2E16AE552E16EF4
:10008000E552E7CFD9FF1200D9CFE6FFE1CFD9FF84
:10009000020EE126FD0EDBCF02F0FE0EDBCF03F0F9
:1000A000033404E202500008000E035416E2DE6A34
:1000B000DD6ADECF02F0DDCF03F0820E025C000EBF
:1000C000035805E2DF2A010E01E3DB2AF2D7FD0E19
:1000D000DB06FE0E01E2DB06DDD7020EE15C02E28A
:1000E000E16AE552E16EE552E7CFD9FF1200D9CFC0
:1000F000E6FFE1CFD9FFE652FD0EDBCF02F0FE0EA8
:10010000DBCF03F0033404E202500008000E035476
:100110000CE2DF6A1C0EDF5C02E2DF2AFBD7FD0E79
:10012000DB06FE0E01E2DB06E7D7DF6AE552E552A9
:10013000E7CFD9FF1200D9CFE6FFE1CFD9FF8B90EF
:100140008B82FE0EDB508C6E8B920A0EE66EE66A98
:100150009BDFE552E552E552E7CFD9FF1200D9CF38
:10016000E6FFE1CFD9FF8B808B82FE0EDB508C6ED9
:100170008B920A0EE66EE66A87DFE552E552E5529B
:10018000E7CFD9FF1200380EE66ED5DFE5520C0E30
:10019000E66ED1DFE552010EE66ECDDFE5521200CC
:1001A000400EE66EC8DFE552020EE66ED8DFE5527D
:1001B000410EE66EC0DFE552010EE66ED0DFE5527D
:1001C000420EE66EB8DFE552190EE66EC8DFE55264
:1001D000430EE66EB0DFE552010EE66EC0DFE5527B
:1001E000440EE66EA8DFE552010EE66EB8DFE5527A
:1001F000450EE66EA0DFE552190EE66EB0DFE55261
:10020000460EE66E98DFE552020EE66EA8DFE55276
:10021000470EE66E90DFE552E66AA1DFE552120076
:10022000480EE66E88DFE552E66A99DFE552490E30
:10023000E66E81DFE552010EE66E91DFE5524A0E71
:10024000E66E79DFE5521A0EE66E89DFE5524B0E57
:10025000E66E71DFE552020EE66E81DFE5524C0E6E
:10026000E66E69DFE552020EE66E79DFE5524D0E6D
:10027000E66E61DFE5521A0EE66E71DFE5524E0E54
:10028000E66E59DFE552010EE66E69DFE5524F0E6C
:10029000E66E51DFE552E66A62DFE5521200500E6B
:1002A000E66E49DFE5520E0EE66E59DFE552510E5D
:1002B000E66E41DFE552110EE66E51DFE552520E59
:1002C000E66E39DFE552110EE66E49DFE552530E58
:1002D000E66E31DFE5521F0EE66E41DFE552540E49
:1002E000E66E29DFE5521B0EE66E39DFE552550E4C
:1002F000E66E21DFE5521B0EE66E31DFE552560E4B
:10030000E66E19DFE5521F0EE66E29DFE552570E45
:10031000E66E11DFE5521F0EE66E21DFE552120098
:10032000580EE66E08DFE552E66A19DFE552590E0F
:10033000E66E01DFE552150EE66E11DFE5525A0E4C
:10034000E66EF9DEE5520E0EE66E09DFE5525B0E53
:10035000E66EF1DEE5521F0EE66E01DFE5525C0E41
:10036000E66EE9DEE5520E0EE66EF9DEE5525D0E52
:10037000E66EE1DEE552150EE66EF1DEE5525E0E4A
:10038000E66ED9DEE552E66AEADEE5525F0EE66E1B
:10039000D2DEE552E66AE3DEE5521200010EE66EB9
:1003A000CADEE552800EE66EC6DEE5524F0EE66E00
:1003B000D6DEE5526C0EE66ED2DEE552610EE66EDA
:1003C000CEDEE5522C0EE66ECADEE552200EE66E5B
:1003D000C6DEE552500EE66EC2DEE5526F0EE66EE8
:1003E000BEDEE552720EE66EBADEE552200EE66E15
:1003F000B6DEE552660EE66EB2DEE552610EE66EE0
:10040000AEDEE552760EE66EAADEE5526F0EE66EC1
:10041000A6DEE552720EE66EA2DEE552C00EE66E74
:100420008ADEE552490EE66E9ADEE5526E0EE66E03
:1004300096DEE552730EE66E92DEE552690EE66ECA
:100440008EDEE552720EE66E8ADEE552610EE66ED3
:1004500086DEE552200EE66E82DEE552730EE66E13
:100460007EDEE552750EE66E7ADEE552610EE66ED0
:1004700076DEE552200EE66E72DEE552730EE66E13
:100480006EDEE552650EE66E6ADEE5526E0EE66ED3
:1004900066DEE552680EE66E62DEE552610EE66EDD
:1004A0005EDEE5521200010EE66E45DEE552800E7C
:1004B000E66E41DEE552530EE66E51DEE552650E04
:1004C000E66E4DDEE5526E0EE66E49DEE552680ED2
:1004D000E66E45DEE552610EE66E41DEE552200E27
:1004E000E66E3DDEE552690EE66E39DEE5526E0ED1
:1004F000E66E35DEE552760EE66E31DEE552610ED1
:10050000E66E2DDEE5526C0EE66E29DEE552690ED2
:10051000E66E25DEE552640EE66E21DEE552610EE2
:10052000E66E1DDEE552210EE66E19DEE552C00EC6
:10053000E66E01DEE552410EE66E11DEE552630E17
:10054000E66E0DDEE552650EE66E09DEE552730ECF
:10055000E66E05DEE552730EE66E01DEE5526F0EC5
:10056000E66EFDDDE552200EE66EF9DDE5526E0E1B
:10057000E66EF5DDE552650EE66EF1DDE552670EDD
:10058000E66EEDDDE552610EE66EE9DDE552640EE4
:10059000E66EE5DDE5526F0EE66EE1DDE552200E1A
:1005A000E66EDDDDE552010EE66ED9DDE5521200A4
:1005B000010EE66EC0DDE552800EE66EBCDDE55252
:1005C000410EE66ECCDDE552630EE66EC8DDE55207
:1005D000650EE66EC4DDE552730EE66EC0DDE552D3
:1005E000730EE66EBCDDE5526F0EE66EB8DDE552C9
:1005F000200EE66EB4DDE5524C0EE66EB0DDE5523F
:10060000690EE66EACDDE552620EE66EA8DDE552DF
:10061000650EE66EA4DDE552720EE66EA0DDE552D3
:10062000610EE66E9CDDE552640EE66E98DDE552E5
:100630006F0EE66E94DDE552210EE66E90DDE5521A
:10064000C00EE66E78DDE552530EE66E88DDE552AB
:10065000650EE66E84DDE5526A0EE66E80DDE552DB
:10066000610EE66E7CDDE552200EE66E78DDE55229
:10067000620EE66E74DDE552650EE66E70DDE552E3
:100680006D0EE66E6CDDE552200EE66E68DDE5521D
:10069000760EE66E64DDE552690EE66E60DDE552CB
:1006A0006E0EE66E5CDDE552640EE66E58DDE552D8
:1006B0006F0EE66E54DDE552200EE66E50DDE5521B
:1006C000E66A4DDDE55212000F0EC16ED38CD38A5F
:1006D000D388936A946A956A56DD8A9E8B9460DD0E
:1006E0009FDDDDDD1DDE5ADE030EE66EE66A8CDC84
:1006F000E552E552D8DE8B948A8E030EE66EE66AEA
:1007000083DCE552E55254DF8A9E8B84FFD71200CA
:10071000060EF66E000EF76E000EF86E0001090070
:10072000F550856F0900F550866F03E1856701D0AC
:100730003DD00900F550806F0900F550816F090028
:10074000F550826F09000900F550E96E0900F55077
:10075000EA6E090009000900F550836F0900F550A1
:10076000846F09000900F6CF87F0F7CF88F0F8CF43
:1007700089F080C0F6FF81C0F7FF82C0F8FF00015A
:10078000835302E1845307E00900F550EE6E8307BE
:10079000F8E28407F9D787C0F6FF88C0F7FF89C061
:0E07A000F8FF00018507000E865BBFD7120030
:0207AE00000E3B
:1007B000F36E00EE00F0060E01D81200EA6002D0DF
:0E07C000EE6AFCD7F350E9601200EE6AFCD737
:0207CE0015EE26
:1007D00000F025EE00F0F86A019C88EC03F0F5ECDF
:0A07E00003F064EC03F0FBD71200F5
:0207EA001200FB
:020000040030CA
:0100010008F6
:0100020019E4
:010003001EDE
:0100050001F9
:00000001FF
