:020000040000FA
:06000000ADEF01F012005B
:020006000000F8
:08000800D9CFE6FFE1CFD9FFDB
:10001000040EE126FD0EDBCF02F0FE0EDBCF03F077
:10002000033404E202500008000E035423E2DE6AA7
:10003000DE6ADE6ADD6ADD52DD52D9CFE9FFDACF52
:10004000EAFF850EEE5C450EEE58010EEE58000EEE
:10005000EE580AE2D9CFE9FFDACFEAFFEE2A000E26
:10006000EE22EE22EE22E9D7FD0EDB06FE0E01E2C5
:10007000DB06D0D7040EE15C02E2E16AE552E16EF4
:10008000E552E7CFD9FF1200D9CFE6FFE1CFD9FF84
:10009000020EE126FD0EDBCF02F0FE0EDBCF03F0F9
:1000A000033404E202500008000E035416E2DE6A34
:1000B000DD6ADECF02F0DDCF03F0820E025C000EBF
:1000C000035805E2DF2A010E01E3DB2AF2D7FD0E19
:1000D000DB06FE0E01E2DB06DDD7020EE15C02E28A
:1000E000E16AE552E16EE552E7CFD9FF1200D9CFC0
:1000F000E6FFE1CFD9FFE652FD0EDBCF02F0FE0EA8
:10010000DBCF03F0033404E202500008000E035476
:100110000CE2DF6A1C0EDF5C02E2DF2AFBD7FD0E79
:10012000DB06FE0E01E2DB06E7D7DF6AE552E552A9
:10013000E7CFD9FF1200D9CFE6FFE1CFD9FF8B90EF
:100140008B82FE0EDB508C6E8B920A0EE66EE66A98
:100150009BDFE552E552E552E7CFD9FF1200D9CF38
:10016000E6FFE1CFD9FF8B808B82FE0EDB508C6ED9
:100170008B920A0EE66EE66A87DFE552E552E5529B
:10018000E7CFD9FF1200380EE66ED5DFE5520C0E30
:10019000E66ED1DFE552010EE66ECDDFE5521200CC
:1001A000440EE66EDCDFE552410EE66ED8DFE55226
:1001B000560EE66ED4DFE552490EE66ED0DFE5520C
:1001C000530EE66ECCDFE5524F0EE66EC8DFE55209
:1001D0004E0EE66EC4DFE552200EE66EC0DFE5523D
:1001E0004C0EE66EBCDFE552550EE66EB8DFE5520A
:1001F000430EE66EB4DFE552410EE66EB0DFE55227
:10020000530EE66EACDFE552C00EE66E94DFE552AB
:10021000490EE66EA4DFE552460EE66EA0DFE5521B
:10022000430EE66E9CDFE552450EE66E98DFE55222
:100230002D0EE66E94DFE552460EE66E90DFE55237
:100240004F0EE66E8CDFE552520EE66E88DFE55209
:10025000540EE66E84DFE552410EE66E80DFE55215
:100260004C0EE66E7CDFE552450EE66E78DFE55219
:100270005A0EE66E74DFE552410EE66E70DFE5520F
:1002800012000F0EC16ED38CD38AD388936A946AFE
:0C029000956A79DF8A8E84DFFFD71200A8
:04029C00060EF66EE6
:1002A000000EF76E000EF86E00010900F550856F24
:1002B0000900F550866F03E1856701D03DD0090044
:1002C000F550806F0900F550816F0900F550826F7D
:1002D00009000900F550E96E0900F550EA6E0900C1
:1002E00009000900F550836F0900F550846F09007B
:1002F0000900F6CF87F0F7CF88F0F8CF89F080C0FB
:10030000F6FF81C0F7FF82C0F8FF0001835302E1CE
:10031000845307E00900F550EE6E8307F8E2840786
:10032000F9D787C0F6FF88C0F7FF89C0F8FF000142
:0A0330008507000E865BBFD71200A0
:06033A00000EF36E00EE60
:1003400000F0060E01D81200EA6002D0EE6AFCD777
:0A035000F350E9601200EE6AFCD7DA
:06035A0015EE00F025EE97
:1003600000F0F86A019C4EEC01F0BBEC01F041ECAE
:0603700001F0FBD71200B2
:02037600120073
:020000040030CA
:0100010008F6
:0100020019E4
:010003001EDE
:0100050001F9
:00000001FF
