:020000040000FA
:0600000001EF02F0120006
:020006000000F8
:08000800D9CFE6FFE1CFD9FFDB
:10001000040EE126FD0EDBCF02F0FE0EDBCF03F077
:10002000033404E202500008000E035423E2DE6AA7
:10003000DE6ADE6ADD6ADD52DD52D9CFE9FFDACF52
:10004000EAFF850EEE5C450EEE58010EEE58000EEE
:10005000EE580AE2D9CFE9FFDACFEAFFEE2A000E26
:10006000EE22EE22EE22E9D7FD0EDB06FE0E01E2C5
:10007000DB06D0D7040EE15C02E2E16AE552E16EF4
:10008000E552E7CFD9FF1200D9CFE6FFE1CFD9FF84
:10009000020EE126FD0EDBCF02F0FE0EDBCF03F0F9
:1000A000033404E202500008000E035416E2DE6A34
:1000B000DD6ADECF02F0DDCF03F0820E025C000EBF
:1000C000035805E2DF2A010E01E3DB2AF2D7FD0E19
:1000D000DB06FE0E01E2DB06DDD7020EE15C02E28A
:1000E000E16AE552E16EE552E7CFD9FF1200D9CFC0
:1000F000E6FFE1CFD9FFE652FD0EDBCF02F0FE0EA8
:10010000DBCF03F0033404E202500008000E035476
:100110000CE2DF6A1C0EDF5C02E2DF2AFBD7FD0E79
:10012000DB06FE0E01E2DB06E7D7DF6AE552E552A9
:10013000E7CFD9FF1200D9CFE6FFE1CFD9FF8A90F0
:100140008A82FE0EDB508C6E8A920A0EE66EE66A9A
:100150009BDFE552E552E552E7CFD9FF1200D9CF38
:10016000E6FFE1CFD9FF8A808A82FE0EDB508C6EDB
:100170008A920A0EE66EE66A87DFE552E552E5529C
:10018000E7CFD9FF1200D9CFE6FFE1CFD9FF8A969A
:100190008A88FE0EDB508B6E8A980A0EE66EE66A3F
:1001A00073DFE552E552E552E7CFD9FF1200D9CF10
:1001B000E6FFE1CFD9FF8A868A88FE0EDB508B6E80
:1001C0008A980A0EE66EE66A5FDFE552E552E5526E
:1001D000E7CFD9FF1200380EE66EADDFE5520C0E08
:1001E000E66EA9DFE552010EE66EA5DFE5521200CC
:1001F000380EE66EC8DFE5520C0EE66EC4DFE5523F
:10020000010EE66EC0DFE5521200490EE66EA7DF72
:10021000E552730EE66EA3DFE552730EE66E9FDFC6
:10022000E5526F0EE66E9BDFE552200EE66E97DF1D
:10023000E552650EE66E93DFE552680EE66E8FDFDF
:10024000E552C00EE66E77DFE552690EE66E87DF97
:10025000E5526E0EE66E83DFE552630EE66E7FDFDB
:10026000E552720EE66E7BDFE552690EE66E77DFD1
:10027000E552760EE66E73DFE552650EE66E6FDFD1
:10028000E5526C0EE66E6BDFE552200EE66E67DF20
:10029000E552210EE66E63DFE5521200540EE66E63
:1002A00086DFE552680EE66E82DFE552690EE66E85
:1002B0007EDFE552730EE66E7ADFE552200EE66EC3
:1002C00076DFE552690EE66E72DFE552730EE66E7A
:1002D0006EDFE552C00EE66E56DFE552610EE66E49
:1002E00066DFE5526D0EE66E62DFE552610EE66E88
:1002F0005EDFE5527A0EE66E5ADFE552690EE66E73
:1003000056DFE5526E0EE66E52DFE552670EE66E80
:100310004EDFE552200EE66E4ADFE552210EE66E14
:1003200046DFE55212000F0EC16ED38CD38AD388FC
:10033000936A946A956A8A844EDF5ADF66DFAEDF7D
:04034000FFD71200D1
:0C034400060EF66E000EF76E000EF86E4E
:1003500000010900F550856F0900F550866F03E133
:10036000856701D03DD00900F550806F0900F55038
:10037000816F0900F550826F09000900F550E96EA0
:100380000900F550EA6E090009000900F550836F75
:100390000900F550846F09000900F6CF87F0F7CF08
:1003A00088F0F8CF89F080C0F6FF81C0F7FF82C0E7
:1003B000F8FF0001835302E1845307E00900F55080
:1003C000EE6E8307F8E28407F9D787C0F6FF88C08E
:1003D000F7FF89C0F8FF00018507000E865BBFD7D5
:0203E000120009
:0E03E200000EF36E00EE00F0060E01D81200C1
:1003F000EA6002D0EE6AFCD7F350E9601200EE6AC0
:02040000FCD727
:0E04020015EE00F025EE00F0F86A019CA2EC69
:0E04100001F00FEC02F093EC01F0FBD71200AC
:02041E001200CA
:020000040030CA
:0100010008F6
:0100020019E4
:010003001EDE
:0100050001F9
:00000001FF
